{
  "_format": "hh-sol-artifact-1",
  "contractName": "PartyCoin",
  "sourceName": "contracts/PartyCoin.sol",
  "abi": [
    {
      "inputs": [
        {
          "internalType": "address",
          "name": "initialOwner",
          "type": "address"
        }
      ],
      "stateMutability": "nonpayable",
      "type": "constructor"
    },
    {
      "inputs": [
        {
          "internalType": "address",
          "name": "spender",
          "type": "address"
        },
        {
          "internalType": "uint256",
          "name": "allowance",
          "type": "uint256"
        },
        {
          "internalType": "uint256",
          "name": "needed",
          "type": "uint256"
        }
      ],
      "name": "ERC20InsufficientAllowance",
      "type": "error"
    },
    {
      "inputs": [
        {
          "internalType": "address",
          "name": "sender",
          "type": "address"
        },
        {
          "internalType": "uint256",
          "name": "balance",
          "type": "uint256"
        },
        {
          "internalType": "uint256",
          "name": "needed",
          "type": "uint256"
        }
      ],
      "name": "ERC20InsufficientBalance",
      "type": "error"
    },
    {
      "inputs": [
        {
          "internalType": "address",
          "name": "approver",
          "type": "address"
        }
      ],
      "name": "ERC20InvalidApprover",
      "type": "error"
    },
    {
      "inputs": [
        {
          "internalType": "address",
          "name": "receiver",
          "type": "address"
        }
      ],
      "name": "ERC20InvalidReceiver",
      "type": "error"
    },
    {
      "inputs": [
        {
          "internalType": "address",
          "name": "sender",
          "type": "address"
        }
      ],
      "name": "ERC20InvalidSender",
      "type": "error"
    },
    {
      "inputs": [
        {
          "internalType": "address",
          "name": "spender",
          "type": "address"
        }
      ],
      "name": "ERC20InvalidSpender",
      "type": "error"
    },
    {
      "inputs": [
        {
          "internalType": "address",
          "name": "owner",
          "type": "address"
        }
      ],
      "name": "OwnableInvalidOwner",
      "type": "error"
    },
    {
      "inputs": [
        {
          "internalType": "address",
          "name": "account",
          "type": "address"
        }
      ],
      "name": "OwnableUnauthorizedAccount",
      "type": "error"
    },
    {
      "anonymous": false,
      "inputs": [
        {
          "indexed": true,
          "internalType": "address",
          "name": "owner",
          "type": "address"
        },
        {
          "indexed": true,
          "internalType": "address",
          "name": "spender",
          "type": "address"
        },
        {
          "indexed": false,
          "internalType": "uint256",
          "name": "value",
          "type": "uint256"
        }
      ],
      "name": "Approval",
      "type": "event"
    },
    {
      "anonymous": false,
      "inputs": [
        {
          "indexed": true,
          "internalType": "address",
          "name": "previousOwner",
          "type": "address"
        },
        {
          "indexed": true,
          "internalType": "address",
          "name": "newOwner",
          "type": "address"
        }
      ],
      "name": "OwnershipTransferred",
      "type": "event"
    },
    {
      "anonymous": false,
      "inputs": [
        {
          "indexed": true,
          "internalType": "address",
          "name": "purchaser",
          "type": "address"
        },
        {
          "indexed": true,
          "internalType": "address",
          "name": "beneficiary",
          "type": "address"
        },
        {
          "indexed": false,
          "internalType": "uint256",
          "name": "amount",
          "type": "uint256"
        }
      ],
      "name": "TokensPurchased",
      "type": "event"
    },
    {
      "anonymous": false,
      "inputs": [
        {
          "indexed": true,
          "internalType": "address",
          "name": "from",
          "type": "address"
        },
        {
          "indexed": true,
          "internalType": "address",
          "name": "to",
          "type": "address"
        },
        {
          "indexed": false,
          "internalType": "uint256",
          "name": "value",
          "type": "uint256"
        }
      ],
      "name": "Transfer",
      "type": "event"
    },
    {
      "inputs": [],
      "name": "INITIAL_SUPPLY",
      "outputs": [
        {
          "internalType": "uint256",
          "name": "",
          "type": "uint256"
        }
      ],
      "stateMutability": "view",
      "type": "function"
    },
    {
      "inputs": [
        {
          "internalType": "address",
          "name": "owner",
          "type": "address"
        },
        {
          "internalType": "address",
          "name": "spender",
          "type": "address"
        }
      ],
      "name": "allowance",
      "outputs": [
        {
          "internalType": "uint256",
          "name": "",
          "type": "uint256"
        }
      ],
      "stateMutability": "view",
      "type": "function"
    },
    {
      "inputs": [
        {
          "internalType": "address",
          "name": "spender",
          "type": "address"
        },
        {
          "internalType": "uint256",
          "name": "value",
          "type": "uint256"
        }
      ],
      "name": "approve",
      "outputs": [
        {
          "internalType": "bool",
          "name": "",
          "type": "bool"
        }
      ],
      "stateMutability": "nonpayable",
      "type": "function"
    },
    {
      "inputs": [
        {
          "internalType": "address",
          "name": "account",
          "type": "address"
        }
      ],
      "name": "balanceOf",
      "outputs": [
        {
          "internalType": "uint256",
          "name": "",
          "type": "uint256"
        }
      ],
      "stateMutability": "view",
      "type": "function"
    },
    {
      "inputs": [],
      "name": "decimals",
      "outputs": [
        {
          "internalType": "uint8",
          "name": "",
          "type": "uint8"
        }
      ],
      "stateMutability": "view",
      "type": "function"
    },
    {
      "inputs": [
        {
          "internalType": "address",
          "name": "to",
          "type": "address"
        },
        {
          "internalType": "uint256",
          "name": "amount",
          "type": "uint256"
        }
      ],
      "name": "mint",
      "outputs": [],
      "stateMutability": "nonpayable",
      "type": "function"
    },
    {
      "inputs": [],
      "name": "name",
      "outputs": [
        {
          "internalType": "string",
          "name": "",
          "type": "string"
        }
      ],
      "stateMutability": "view",
      "type": "function"
    },
    {
      "inputs": [],
      "name": "owner",
      "outputs": [
        {
          "internalType": "address",
          "name": "",
          "type": "address"
        }
      ],
      "stateMutability": "view",
      "type": "function"
    },
    {
      "inputs": [
        {
          "internalType": "address",
          "name": "beneficiary",
          "type": "address"
        },
        {
          "internalType": "uint256",
          "name": "amount",
          "type": "uint256"
        }
      ],
      "name": "purchaseTokens",
      "outputs": [],
      "stateMutability": "payable",
      "type": "function"
    },
    {
      "inputs": [],
      "name": "renounceOwnership",
      "outputs": [],
      "stateMutability": "nonpayable",
      "type": "function"
    },
    {
      "inputs": [],
      "name": "symbol",
      "outputs": [
        {
          "internalType": "string",
          "name": "",
          "type": "string"
        }
      ],
      "stateMutability": "view",
      "type": "function"
    },
    {
      "inputs": [],
      "name": "totalSupply",
      "outputs": [
        {
          "internalType": "uint256",
          "name": "",
          "type": "uint256"
        }
      ],
      "stateMutability": "view",
      "type": "function"
    },
    {
      "inputs": [
        {
          "internalType": "address",
          "name": "to",
          "type": "address"
        },
        {
          "internalType": "uint256",
          "name": "value",
          "type": "uint256"
        }
      ],
      "name": "transfer",
      "outputs": [
        {
          "internalType": "bool",
          "name": "",
          "type": "bool"
        }
      ],
      "stateMutability": "nonpayable",
      "type": "function"
    },
    {
      "inputs": [
        {
          "internalType": "address",
          "name": "from",
          "type": "address"
        },
        {
          "internalType": "address",
          "name": "to",
          "type": "address"
        },
        {
          "internalType": "uint256",
          "name": "value",
          "type": "uint256"
        }
      ],
      "name": "transferFrom",
      "outputs": [
        {
          "internalType": "bool",
          "name": "",
          "type": "bool"
        }
      ],
      "stateMutability": "nonpayable",
      "type": "function"
    },
    {
      "inputs": [
        {
          "internalType": "address",
          "name": "newOwner",
          "type": "address"
        }
      ],
      "name": "transferOwnership",
      "outputs": [],
      "stateMutability": "nonpayable",
      "type": "function"
    }
  ],
  "bytecode": "0x60806040523480156200001157600080fd5b5060405162001f0a38038062001f0a833981810160405281019062000037919062000561565b806040518060400160405280600981526020017f5061727479436f696e00000000000000000000000000000000000000000000008152506040518060400160405280600481526020017f50525459000000000000000000000000000000000000000000000000000000008152508160039081620000b591906200080d565b508060049081620000c791906200080d565b505050600073ffffffffffffffffffffffffffffffffffffffff168173ffffffffffffffffffffffffffffffffffffffff16036200013f5760006040517f1e4fbdf700000000000000000000000000000000000000000000000000000000815260040162000136919062000905565b60405180910390fd5b62000150816200017460201b60201c565b506200016d8169d3c21bcecceda10000006200023a60201b60201c565b50620009f7565b6000600560009054906101000a900473ffffffffffffffffffffffffffffffffffffffff16905081600560006101000a81548173ffffffffffffffffffffffffffffffffffffffff021916908373ffffffffffffffffffffffffffffffffffffffff1602179055508173ffffffffffffffffffffffffffffffffffffffff168173ffffffffffffffffffffffffffffffffffffffff167f8be0079c531659141344cd1fd0a4f28419497f9722a3daafe3b4186f6b6457e060405160405180910390a35050565b600073ffffffffffffffffffffffffffffffffffffffff168273ffffffffffffffffffffffffffffffffffffffff1603620002af5760006040517fec442f05000000000000000000000000000000000000000000000000000000008152600401620002a6919062000905565b60405180910390fd5b620002c360008383620002c760201b60201c565b5050565b600073ffffffffffffffffffffffffffffffffffffffff168373ffffffffffffffffffffffffffffffffffffffff16036200031d57806002600082825462000310919062000951565b92505081905550620003f3565b60008060008573ffffffffffffffffffffffffffffffffffffffff1673ffffffffffffffffffffffffffffffffffffffff16815260200190815260200160002054905081811015620003ac578381836040517fe450d38c000000000000000000000000000000000000000000000000000000008152600401620003a3939291906200099d565b60405180910390fd5b8181036000808673ffffffffffffffffffffffffffffffffffffffff1673ffffffffffffffffffffffffffffffffffffffff16815260200190815260200160002081905550505b600073ffffffffffffffffffffffffffffffffffffffff168273ffffffffffffffffffffffffffffffffffffffff16036200043e57806002600082825403925050819055506200048b565b806000808473ffffffffffffffffffffffffffffffffffffffff1673ffffffffffffffffffffffffffffffffffffffff168152602001908152602001600020600082825401925050819055505b8173ffffffffffffffffffffffffffffffffffffffff168373ffffffffffffffffffffffffffffffffffffffff167fddf252ad1be2c89b69c2b068fc378daa952ba7f163c4a11628f55a4df523b3ef83604051620004ea9190620009da565b60405180910390a3505050565b600080fd5b600073ffffffffffffffffffffffffffffffffffffffff82169050919050565b60006200052982620004fc565b9050919050565b6200053b816200051c565b81146200054757600080fd5b50565b6000815190506200055b8162000530565b92915050565b6000602082840312156200057a5762000579620004f7565b5b60006200058a848285016200054a565b91505092915050565b600081519050919050565b7f4e487b7100000000000000000000000000000000000000000000000000000000600052604160045260246000fd5b7f4e487b7100000000000000000000000000000000000000000000000000000000600052602260045260246000fd5b600060028204905060018216806200061557607f821691505b6020821081036200062b576200062a620005cd565b5b50919050565b60008190508160005260206000209050919050565b60006020601f8301049050919050565b600082821b905092915050565b600060088302620006957fffffffffffffffffffffffffffffffffffffffffffffffffffffffffffffffff8262000656565b620006a1868362000656565b95508019841693508086168417925050509392505050565b6000819050919050565b6000819050919050565b6000620006ee620006e8620006e284620006b9565b620006c3565b620006b9565b9050919050565b6000819050919050565b6200070a83620006cd565b620007226200071982620006f5565b84845462000663565b825550505050565b600090565b620007396200072a565b62000746818484620006ff565b505050565b5b818110156200076e57620007626000826200072f565b6001810190506200074c565b5050565b601f821115620007bd57620007878162000631565b620007928462000646565b81016020851015620007a2578190505b620007ba620007b18562000646565b8301826200074b565b50505b505050565b600082821c905092915050565b6000620007e260001984600802620007c2565b1980831691505092915050565b6000620007fd8383620007cf565b9150826002028217905092915050565b620008188262000593565b67ffffffffffffffff8111156200083457620008336200059e565b5b620008408254620005fc565b6200084d82828562000772565b600060209050601f83116001811462000885576000841562000870578287015190505b6200087c8582620007ef565b865550620008ec565b601f198416620008958662000631565b60005b82811015620008bf5784890151825560018201915060208501945060208101905062000898565b86831015620008df5784890151620008db601f891682620007cf565b8355505b6001600288020188555050505b505050505050565b620008ff816200051c565b82525050565b60006020820190506200091c6000830184620008f4565b92915050565b7f4e487b7100000000000000000000000000000000000000000000000000000000600052601160045260246000fd5b60006200095e82620006b9565b91506200096b83620006b9565b925082820190508082111562000986576200098562000922565b5b92915050565b6200099781620006b9565b82525050565b6000606082019050620009b46000830186620008f4565b620009c360208301856200098c565b620009d260408301846200098c565b949350505050565b6000602082019050620009f160008301846200098c565b92915050565b6115038062000a076000396000f3fe6080604052600436106100e85760003560e01c806340c10f191161008a57806395d89b411161005957806395d89b41146102d7578063a9059cbb14610302578063dd62ed3e1461033f578063f2fde38b1461037c576100e8565b806340c10f191461022f57806370a0823114610258578063715018a6146102955780638da5cb5b146102ac576100e8565b806322ea2231116100c657806322ea22311461018057806323b872dd1461019c5780632ff2e9dc146101d9578063313ce56714610204576100e8565b806306fdde03146100ed578063095ea7b31461011857806318160ddd14610155575b600080fd5b3480156100f957600080fd5b506101026103a5565b60405161010f9190611033565b60405180910390f35b34801561012457600080fd5b5061013f600480360381019061013a91906110ee565b610437565b60405161014c9190611149565b60405180910390f35b34801561016157600080fd5b5061016a61045a565b6040516101779190611173565b60405180910390f35b61019a600480360381019061019591906110ee565b610464565b005b3480156101a857600080fd5b506101c360048036038101906101be919061118e565b610591565b6040516101d09190611149565b60405180910390f35b3480156101e557600080fd5b506101ee6105c0565b6040516101fb9190611173565b60405180910390f35b34801561021057600080fd5b506102196105ce565b60405161022691906111fd565b60405180910390f35b34801561023b57600080fd5b50610256600480360381019061025191906110ee565b6105d7565b005b34801561026457600080fd5b5061027f600480360381019061027a9190611218565b6105ed565b60405161028c9190611173565b60405180910390f35b3480156102a157600080fd5b506102aa610635565b005b3480156102b857600080fd5b506102c1610649565b6040516102ce9190611254565b60405180910390f35b3480156102e357600080fd5b506102ec610673565b6040516102f99190611033565b60405180910390f35b34801561030e57600080fd5b50610329600480360381019061032491906110ee565b610705565b6040516103369190611149565b60405180910390f35b34801561034b57600080fd5b506103666004803603810190610361919061126f565b610728565b6040516103739190611173565b60405180910390f35b34801561038857600080fd5b506103a3600480360381019061039e9190611218565b6107af565b005b6060600380546103b4906112de565b80601f01602080910402602001604051908101604052809291908181526020018280546103e0906112de565b801561042d5780601f106104025761010080835404028352916020019161042d565b820191906000526020600020905b81548152906001019060200180831161041057829003601f168201915b5050505050905090565b600080610442610835565b905061044f81858561083d565b600191505092915050565b6000600254905090565b61046c61084f565b600073ffffffffffffffffffffffffffffffffffffffff168273ffffffffffffffffffffffffffffffffffffffff16036104db576040517f08c379a00000000000000000000000000000000000000000000000000000000081526004016104d290611381565b60405180910390fd5b6000811161051e576040517f08c379a000000000000000000000000000000000000000000000000000000000815260040161051590611413565b60405180910390fd5b61052882826108d6565b8173ffffffffffffffffffffffffffffffffffffffff163373ffffffffffffffffffffffffffffffffffffffff167ff9b4eb3e43eebbf559e9b96ceff1c786a7edab2938c7f5f80678197c2e0edba5836040516105859190611173565b60405180910390a35050565b60008061059c610835565b90506105a9858285610958565b6105b48585856109ed565b60019150509392505050565b69d3c21bcecceda100000081565b60006012905090565b6105df61084f565b6105e982826108d6565b5050565b60008060008373ffffffffffffffffffffffffffffffffffffffff1673ffffffffffffffffffffffffffffffffffffffff168152602001908152602001600020549050919050565b61063d61084f565b6106476000610ae1565b565b6000600560009054906101000a900473ffffffffffffffffffffffffffffffffffffffff16905090565b606060048054610682906112de565b80601f01602080910402602001604051908101604052809291908181526020018280546106ae906112de565b80156106fb5780601f106106d0576101008083540402835291602001916106fb565b820191906000526020600020905b8154815290600101906020018083116106de57829003601f168201915b5050505050905090565b600080610710610835565b905061071d8185856109ed565b600191505092915050565b6000600160008473ffffffffffffffffffffffffffffffffffffffff1673ffffffffffffffffffffffffffffffffffffffff16815260200190815260200160002060008373ffffffffffffffffffffffffffffffffffffffff1673ffffffffffffffffffffffffffffffffffffffff16815260200190815260200160002054905092915050565b6107b761084f565b600073ffffffffffffffffffffffffffffffffffffffff168173ffffffffffffffffffffffffffffffffffffffff16036108295760006040517f1e4fbdf70000000000000000000000000000000000000000000000000000000081526004016108209190611254565b60405180910390fd5b61083281610ae1565b50565b600033905090565b61084a8383836001610ba7565b505050565b610857610835565b73ffffffffffffffffffffffffffffffffffffffff16610875610649565b73ffffffffffffffffffffffffffffffffffffffff16146108d457610898610835565b6040517f118cdaa70000000000000000000000000000000000000000000000000000000081526004016108cb9190611254565b60405180910390fd5b565b600073ffffffffffffffffffffffffffffffffffffffff168273ffffffffffffffffffffffffffffffffffffffff16036109485760006040517fec442f0500000000000000000000000000000000000000000000000000000000815260040161093f9190611254565b60405180910390fd5b61095460008383610d7e565b5050565b60006109648484610728565b90507fffffffffffffffffffffffffffffffffffffffffffffffffffffffffffffffff8110156109e757818110156109d7578281836040517ffb8f41b20000000000000000000000000000000000000000000000000000000081526004016109ce93929190611433565b60405180910390fd5b6109e684848484036000610ba7565b5b50505050565b600073ffffffffffffffffffffffffffffffffffffffff168373ffffffffffffffffffffffffffffffffffffffff1603610a5f5760006040517f96c6fd1e000000000000000000000000000000000000000000000000000000008152600401610a569190611254565b60405180910390fd5b600073ffffffffffffffffffffffffffffffffffffffff168273ffffffffffffffffffffffffffffffffffffffff1603610ad15760006040517fec442f05000000000000000000000000000000000000000000000000000000008152600401610ac89190611254565b60405180910390fd5b610adc838383610d7e565b505050565b6000600560009054906101000a900473ffffffffffffffffffffffffffffffffffffffff16905081600560006101000a81548173ffffffffffffffffffffffffffffffffffffffff021916908373ffffffffffffffffffffffffffffffffffffffff1602179055508173ffffffffffffffffffffffffffffffffffffffff168173ffffffffffffffffffffffffffffffffffffffff167f8be0079c531659141344cd1fd0a4f28419497f9722a3daafe3b4186f6b6457e060405160405180910390a35050565b600073ffffffffffffffffffffffffffffffffffffffff168473ffffffffffffffffffffffffffffffffffffffff1603610c195760006040517fe602df05000000000000000000000000000000000000000000000000000000008152600401610c109190611254565b60405180910390fd5b600073ffffffffffffffffffffffffffffffffffffffff168373ffffffffffffffffffffffffffffffffffffffff1603610c8b5760006040517f94280d62000000000000000000000000000000000000000000000000000000008152600401610c829190611254565b60405180910390fd5b81600160008673ffffffffffffffffffffffffffffffffffffffff1673ffffffffffffffffffffffffffffffffffffffff16815260200190815260200160002060008573ffffffffffffffffffffffffffffffffffffffff1673ffffffffffffffffffffffffffffffffffffffff168152602001908152602001600020819055508015610d78578273ffffffffffffffffffffffffffffffffffffffff168473ffffffffffffffffffffffffffffffffffffffff167f8c5be1e5ebec7d5bd14f71427d1e84f3dd0314c0f7b2291e5b200ac8c7c3b92584604051610d6f9190611173565b60405180910390a35b50505050565b600073ffffffffffffffffffffffffffffffffffffffff168373ffffffffffffffffffffffffffffffffffffffff1603610dd0578060026000828254610dc49190611499565b92505081905550610ea3565b60008060008573ffffffffffffffffffffffffffffffffffffffff1673ffffffffffffffffffffffffffffffffffffffff16815260200190815260200160002054905081811015610e5c578381836040517fe450d38c000000000000000000000000000000000000000000000000000000008152600401610e5393929190611433565b60405180910390fd5b8181036000808673ffffffffffffffffffffffffffffffffffffffff1673ffffffffffffffffffffffffffffffffffffffff16815260200190815260200160002081905550505b600073ffffffffffffffffffffffffffffffffffffffff168273ffffffffffffffffffffffffffffffffffffffff1603610eec5780600260008282540392505081905550610f39565b806000808473ffffffffffffffffffffffffffffffffffffffff1673ffffffffffffffffffffffffffffffffffffffff168152602001908152602001600020600082825401925050819055505b8173ffffffffffffffffffffffffffffffffffffffff168373ffffffffffffffffffffffffffffffffffffffff167fddf252ad1be2c89b69c2b068fc378daa952ba7f163c4a11628f55a4df523b3ef83604051610f969190611173565b60405180910390a3505050565b600081519050919050565b600082825260208201905092915050565b60005b83811015610fdd578082015181840152602081019050610fc2565b60008484015250505050565b6000601f19601f8301169050919050565b600061100582610fa3565b61100f8185610fae565b935061101f818560208601610fbf565b61102881610fe9565b840191505092915050565b6000602082019050818103600083015261104d8184610ffa565b905092915050565b600080fd5b600073ffffffffffffffffffffffffffffffffffffffff82169050919050565b60006110858261105a565b9050919050565b6110958161107a565b81146110a057600080fd5b50565b6000813590506110b28161108c565b92915050565b6000819050919050565b6110cb816110b8565b81146110d657600080fd5b50565b6000813590506110e8816110c2565b92915050565b6000806040838503121561110557611104611055565b5b6000611113858286016110a3565b9250506020611124858286016110d9565b9150509250929050565b60008115159050919050565b6111438161112e565b82525050565b600060208201905061115e600083018461113a565b92915050565b61116d816110b8565b82525050565b60006020820190506111886000830184611164565b92915050565b6000806000606084860312156111a7576111a6611055565b5b60006111b5868287016110a3565b93505060206111c6868287016110a3565b92505060406111d7868287016110d9565b9150509250925092565b600060ff82169050919050565b6111f7816111e1565b82525050565b600060208201905061121260008301846111ee565b92915050565b60006020828403121561122e5761122d611055565b5b600061123c848285016110a3565b91505092915050565b61124e8161107a565b82525050565b60006020820190506112696000830184611245565b92915050565b6000806040838503121561128657611285611055565b5b6000611294858286016110a3565b92505060206112a5858286016110a3565b9150509250929050565b7f4e487b7100000000000000000000000000000000000000000000000000000000600052602260045260246000fd5b600060028204905060018216806112f657607f821691505b602082108103611309576113086112af565b5b50919050565b7f5061727479436f696e3a2062656e656669636961727920697320746865207a6560008201527f726f206164647265737300000000000000000000000000000000000000000000602082015250565b600061136b602a83610fae565b91506113768261130f565b604082019050919050565b6000602082019050818103600083015261139a8161135e565b9050919050565b7f5061727479436f696e3a20616d6f756e74206d7573742062652067726561746560008201527f72207468616e2030000000000000000000000000000000000000000000000000602082015250565b60006113fd602883610fae565b9150611408826113a1565b604082019050919050565b6000602082019050818103600083015261142c816113f0565b9050919050565b60006060820190506114486000830186611245565b6114556020830185611164565b6114626040830184611164565b949350505050565b7f4e487b7100000000000000000000000000000000000000000000000000000000600052601160045260246000fd5b60006114a4826110b8565b91506114af836110b8565b92508282019050808211156114c7576114c661146a565b5b9291505056fea2646970667358221220353a1345462d060082edc59a74f5ff54a7743b9b3cc03c212170941cd2e39e6d64736f6c63430008140033",
  "linkReferences": {},
  "deployedLinkReferences": {}
}